{
  "address": "0x261D8c5e9742e6f7f1076Fa1F560894524e19cad",
  "abi": [
    {
      "anonymous": false,
      "inputs": [
        {
          "indexed": false,
          "internalType": "uint8",
          "name": "version",
          "type": "uint8"
        }
      ],
      "name": "Initialized",
      "type": "event"
    },
    {
      "anonymous": false,
      "inputs": [
        {
          "indexed": true,
          "internalType": "address",
          "name": "seller",
          "type": "address"
        },
        {
          "indexed": true,
          "internalType": "address",
          "name": "nftAddress",
          "type": "address"
        },
        {
          "indexed": true,
          "internalType": "uint256",
          "name": "tokenId",
          "type": "uint256"
        },
        {
          "indexed": false,
          "internalType": "uint256",
          "name": "price",
          "type": "uint256"
        }
      ],
      "name": "ItemListed",
      "type": "event"
    },
    {
      "inputs": [],
      "name": "MarketBalance",
      "outputs": [
        {
          "internalType": "uint256",
          "name": "",
          "type": "uint256"
        }
      ],
      "stateMutability": "view",
      "type": "function"
    },
    {
      "inputs": [
        {
          "internalType": "address",
          "name": "nftAddress",
          "type": "address"
        },
        {
          "internalType": "uint256",
          "name": "tokenId",
          "type": "uint256"
        },
        {
          "internalType": "uint256",
          "name": "_amount",
          "type": "uint256"
        }
      ],
      "name": "buyItem",
      "outputs": [],
      "stateMutability": "payable",
      "type": "function"
    },
    {
      "inputs": [
        {
          "internalType": "address",
          "name": "nftAddress",
          "type": "address"
        },
        {
          "internalType": "uint256",
          "name": "tokenId",
          "type": "uint256"
        }
      ],
      "name": "getListing",
      "outputs": [
        {
          "components": [
            {
              "internalType": "address",
              "name": "nftAddress",
              "type": "address"
            },
            {
              "internalType": "address",
              "name": "seller",
              "type": "address"
            },
            {
              "internalType": "uint256",
              "name": "tokenId",
              "type": "uint256"
            },
            {
              "internalType": "uint256",
              "name": "price",
              "type": "uint256"
            },
            {
              "internalType": "uint256",
              "name": "quantity",
              "type": "uint256"
            },
            {
              "internalType": "uint256",
              "name": "nftType",
              "type": "uint256"
            }
          ],
          "internalType": "struct marketUpgrade.Listing",
          "name": "",
          "type": "tuple"
        }
      ],
      "stateMutability": "view",
      "type": "function"
    },
    {
      "inputs": [
        {
          "internalType": "address",
          "name": "seller",
          "type": "address"
        }
      ],
      "name": "getProceeds",
      "outputs": [
        {
          "internalType": "uint256",
          "name": "",
          "type": "uint256"
        }
      ],
      "stateMutability": "view",
      "type": "function"
    },
    {
      "inputs": [
        {
          "internalType": "address",
          "name": "_NFT20",
          "type": "address"
        }
      ],
      "name": "init",
      "outputs": [],
      "stateMutability": "nonpayable",
      "type": "function"
    },
    {
      "inputs": [
        {
          "internalType": "address",
          "name": "nftAddress",
          "type": "address"
        },
        {
          "internalType": "uint256",
          "name": "tokenId",
          "type": "uint256"
        },
        {
          "internalType": "uint256",
          "name": "price",
          "type": "uint256"
        },
        {
          "internalType": "uint256",
          "name": "quantity",
          "type": "uint256"
        },
        {
          "internalType": "uint256",
          "name": "nftType",
          "type": "uint256"
        }
      ],
      "name": "listItem",
      "outputs": [],
      "stateMutability": "nonpayable",
      "type": "function"
    }
  ],
  "transactionHash": "0x88d68fb2905949c665ba33f5668f5e803e4117a2b8a24e194c10505d16204536",
  "args": [],
  "numDeployments": 1,
  "solcInputHash": "56c9c0752e8ab0bcc4bafa3e5ed69a3b",
  "bytecode": "0x608060405234801561001057600080fd5b5060018081905550611f03806100276000396000f3fe6080604052600436106100555760003560e01c806319ab453c1461005a57806330cfeda91461008357806364bbb37b146100c057806388700d1c146100eb578063b100bcdb14610128578063f6b45c4614610151575b600080fd5b34801561006657600080fd5b50610081600480360381019061007c91906115af565b61016d565b005b34801561008f57600080fd5b506100aa60048036038101906100a591906115af565b610326565b6040516100b791906115f5565b60405180910390f35b3480156100cc57600080fd5b506100d561036f565b6040516100e291906115f5565b60405180910390f35b3480156100f757600080fd5b50610112600480360381019061010d919061163c565b6103b0565b60405161011f9190611715565b60405180910390f35b34801561013457600080fd5b5061014f600480360381019061014a9190611730565b6104ef565b005b61016b600480360381019061016691906117ab565b610bee565b005b60008060019054906101000a900460ff1615905080801561019e5750600160008054906101000a900460ff1660ff16105b806101cb57506101ad306113aa565b1580156101ca5750600160008054906101000a900460ff1660ff16145b5b61020a576040517f08c379a000000000000000000000000000000000000000000000000000000000815260040161020190611881565b60405180910390fd5b60016000806101000a81548160ff021916908360ff1602179055508015610247576001600060016101000a81548160ff0219169083151502179055505b33600260006101000a81548173ffffffffffffffffffffffffffffffffffffffff021916908373ffffffffffffffffffffffffffffffffffffffff16021790555081600360006101000a81548173ffffffffffffffffffffffffffffffffffffffff021916908373ffffffffffffffffffffffffffffffffffffffff16021790555080156103225760008060016101000a81548160ff0219169083151502179055507f7f26b83ff96e1f2b6a682f133852f6798a09c465da95921460cefb3847402498600160405161031991906118f3565b60405180910390a15b5050565b6000600560008373ffffffffffffffffffffffffffffffffffffffff1673ffffffffffffffffffffffffffffffffffffffff168152602001908152602001600020549050919050565b6000600260009054906101000a900473ffffffffffffffffffffffffffffffffffffffff1673ffffffffffffffffffffffffffffffffffffffff1631905090565b6103b86114ea565b600460008473ffffffffffffffffffffffffffffffffffffffff1673ffffffffffffffffffffffffffffffffffffffff16815260200190815260200160002060008381526020019081526020016000206040518060c00160405290816000820160009054906101000a900473ffffffffffffffffffffffffffffffffffffffff1673ffffffffffffffffffffffffffffffffffffffff1673ffffffffffffffffffffffffffffffffffffffff1681526020016001820160009054906101000a900473ffffffffffffffffffffffffffffffffffffffff1673ffffffffffffffffffffffffffffffffffffffff1673ffffffffffffffffffffffffffffffffffffffff168152602001600282015481526020016003820154815260200160048201548152602001600582015481525050905092915050565b8484336000600460008573ffffffffffffffffffffffffffffffffffffffff1673ffffffffffffffffffffffffffffffffffffffff16815260200190815260200160002060008481526020019081526020016000206040518060c00160405290816000820160009054906101000a900473ffffffffffffffffffffffffffffffffffffffff1673ffffffffffffffffffffffffffffffffffffffff1673ffffffffffffffffffffffffffffffffffffffff1681526020016001820160009054906101000a900473ffffffffffffffffffffffffffffffffffffffff1673ffffffffffffffffffffffffffffffffffffffff1673ffffffffffffffffffffffffffffffffffffffff168152602001600282015481526020016003820154815260200160048201548152602001600582015481525050905060008160600151111561066d576040517f08c379a00000000000000000000000000000000000000000000000000000000081526004016106649061195a565b60405180910390fd5b60018503610a125760008990503373ffffffffffffffffffffffffffffffffffffffff168173ffffffffffffffffffffffffffffffffffffffff16636352211e8b6040518263ffffffff1660e01b81526004016106ca91906115f5565b602060405180830381865afa1580156106e7573d6000803e3d6000fd5b505050506040513d601f19601f8201168201806040525081019061070b919061198f565b73ffffffffffffffffffffffffffffffffffffffff1614610761576040517f08c379a000000000000000000000000000000000000000000000000000000000815260040161075890611a08565b60405180910390fd5b3073ffffffffffffffffffffffffffffffffffffffff168173ffffffffffffffffffffffffffffffffffffffff1663081812fc8b6040518263ffffffff1660e01b81526004016107b191906115f5565b602060405180830381865afa1580156107ce573d6000803e3d6000fd5b505050506040513d601f19601f820116820180604052508101906107f2919061198f565b73ffffffffffffffffffffffffffffffffffffffff1614610848576040517f08c379a000000000000000000000000000000000000000000000000000000000815260040161083f90611a74565b60405180910390fd5b6040518060c001604052808b73ffffffffffffffffffffffffffffffffffffffff1681526020013373ffffffffffffffffffffffffffffffffffffffff1681526020018a815260200189815260200188815260200187815250600460008c73ffffffffffffffffffffffffffffffffffffffff1673ffffffffffffffffffffffffffffffffffffffff16815260200190815260200160002060008b815260200190815260200160002060008201518160000160006101000a81548173ffffffffffffffffffffffffffffffffffffffff021916908373ffffffffffffffffffffffffffffffffffffffff16021790555060208201518160010160006101000a81548173ffffffffffffffffffffffffffffffffffffffff021916908373ffffffffffffffffffffffffffffffffffffffff16021790555060408201518160020155606082015181600301556080820151816004015560a08201518160050155905050888a73ffffffffffffffffffffffffffffffffffffffff163373ffffffffffffffffffffffffffffffffffffffff167fd547e933094f12a9159076970143ebe73234e64480317844b0dcb36117116de48b604051610a0891906115f5565b60405180910390a4505b60028503610be3576040518060c001604052808a73ffffffffffffffffffffffffffffffffffffffff1681526020013373ffffffffffffffffffffffffffffffffffffffff16815260200189815260200188815260200187815260200186815250600460008b73ffffffffffffffffffffffffffffffffffffffff1673ffffffffffffffffffffffffffffffffffffffff16815260200190815260200160002060008a815260200190815260200160002060008201518160000160006101000a81548173ffffffffffffffffffffffffffffffffffffffff021916908373ffffffffffffffffffffffffffffffffffffffff16021790555060208201518160010160006101000a81548173ffffffffffffffffffffffffffffffffffffffff021916908373ffffffffffffffffffffffffffffffffffffffff16021790555060408201518160020155606082015181600301556080820151816004015560a08201518160050155905050878973ffffffffffffffffffffffffffffffffffffffff163373ffffffffffffffffffffffffffffffffffffffff167fd547e933094f12a9159076970143ebe73234e64480317844b0dcb36117116de48a604051610bda91906115f5565b60405180910390a45b505050505050505050565b82826000600460008473ffffffffffffffffffffffffffffffffffffffff1673ffffffffffffffffffffffffffffffffffffffff16815260200190815260200160002060008381526020019081526020016000206040518060c00160405290816000820160009054906101000a900473ffffffffffffffffffffffffffffffffffffffff1673ffffffffffffffffffffffffffffffffffffffff1673ffffffffffffffffffffffffffffffffffffffff1681526020016001820160009054906101000a900473ffffffffffffffffffffffffffffffffffffffff1673ffffffffffffffffffffffffffffffffffffffff1673ffffffffffffffffffffffffffffffffffffffff16815260200160028201548152602001600382015481526020016004820154815260200160058201548152505090506000816060015111610d6a576040517f08c379a0000000000000000000000000000000000000000000000000000000008152600401610d6190611ae0565b60405180910390fd5b610d726113cd565b6000600460008873ffffffffffffffffffffffffffffffffffffffff1673ffffffffffffffffffffffffffffffffffffffff16815260200190815260200160002060008781526020019081526020016000206040518060c00160405290816000820160009054906101000a900473ffffffffffffffffffffffffffffffffffffffff1673ffffffffffffffffffffffffffffffffffffffff1673ffffffffffffffffffffffffffffffffffffffff1681526020016001820160009054906101000a900473ffffffffffffffffffffffffffffffffffffffff1673ffffffffffffffffffffffffffffffffffffffff1673ffffffffffffffffffffffffffffffffffffffff16815260200160028201548152602001600382015481526020016004820154815260200160058201548152505090508060600151341015610eec576040517f08c379a0000000000000000000000000000000000000000000000000000000008152600401610ee390611b4c565b60405180910390fd5b8481608001511015610f33576040517f08c379a0000000000000000000000000000000000000000000000000000000008152600401610f2a90611bb8565b60405180910390fd5b806060015160056000836020015173ffffffffffffffffffffffffffffffffffffffff1673ffffffffffffffffffffffffffffffffffffffff1681526020019081526020016000206000828254610f8a9190611c07565b9250508190555060018160a0015103611015578673ffffffffffffffffffffffffffffffffffffffff166342842e0e826020015133896040518463ffffffff1660e01b8152600401610fde93929190611c4a565b600060405180830381600087803b158015610ff857600080fd5b505af115801561100c573d6000803e3d6000fd5b50505050611098565b60028160a0015103611097578673ffffffffffffffffffffffffffffffffffffffff1663f242432a82602001513389896040518563ffffffff1660e01b81526004016110649493929190611cb8565b600060405180830381600087803b15801561107e57600080fd5b505af1158015611092573d6000803e3d6000fd5b505050505b5b6110db6040518060400160405280601381526020017f44657461696c73206265666f72652073656c6c00000000000000000000000000815250826080015161141c565b600460008873ffffffffffffffffffffffffffffffffffffffff1673ffffffffffffffffffffffffffffffffffffffff1681526020019081526020016000206000878152602001908152602001600020600080820160006101000a81549073ffffffffffffffffffffffffffffffffffffffff02191690556001820160006101000a81549073ffffffffffffffffffffffffffffffffffffffff021916905560028201600090556003820160009055600482016000905560058201600090555050600260009054906101000a900473ffffffffffffffffffffffffffffffffffffffff1673ffffffffffffffffffffffffffffffffffffffff166108fc612710603784606001516111ec9190611d10565b6111f69190611d81565b9081150290604051600060405180830381858888f19350505050158015611221573d6000803e3d6000fd5b506000600460008973ffffffffffffffffffffffffffffffffffffffff1673ffffffffffffffffffffffffffffffffffffffff16815260200190815260200160002060008881526020019081526020016000206040518060c00160405290816000820160009054906101000a900473ffffffffffffffffffffffffffffffffffffffff1673ffffffffffffffffffffffffffffffffffffffff1673ffffffffffffffffffffffffffffffffffffffff1681526020016001820160009054906101000a900473ffffffffffffffffffffffffffffffffffffffff1673ffffffffffffffffffffffffffffffffffffffff1673ffffffffffffffffffffffffffffffffffffffff16815260200160028201548152602001600382015481526020016004820154815260200160058201548152505090506113986040518060400160405280601281526020017f44657461696c732061667465722073656c6c0000000000000000000000000000815250826080015161141c565b50506113a26114b8565b505050505050565b6000808273ffffffffffffffffffffffffffffffffffffffff163b119050919050565b600260015403611412576040517f08c379a000000000000000000000000000000000000000000000000000000000815260040161140990611dfe565b60405180910390fd5b6002600181905550565b6114b48282604051602401611432929190611e9d565b6040516020818303038152906040527fb60e72cc000000000000000000000000000000000000000000000000000000007bffffffffffffffffffffffffffffffffffffffffffffffffffffffff19166020820180517bffffffffffffffffffffffffffffffffffffffffffffffffffffffff83818316178352505050506114c1565b5050565b60018081905550565b60008151905060006a636f6e736f6c652e6c6f679050602083016000808483855afa5050505050565b6040518060c00160405280600073ffffffffffffffffffffffffffffffffffffffff168152602001600073ffffffffffffffffffffffffffffffffffffffff168152602001600081526020016000815260200160008152602001600081525090565b600080fd5b600073ffffffffffffffffffffffffffffffffffffffff82169050919050565b600061157c82611551565b9050919050565b61158c81611571565b811461159757600080fd5b50565b6000813590506115a981611583565b92915050565b6000602082840312156115c5576115c461154c565b5b60006115d38482850161159a565b91505092915050565b6000819050919050565b6115ef816115dc565b82525050565b600060208201905061160a60008301846115e6565b92915050565b611619816115dc565b811461162457600080fd5b50565b60008135905061163681611610565b92915050565b600080604083850312156116535761165261154c565b5b60006116618582860161159a565b925050602061167285828601611627565b9150509250929050565b61168581611571565b82525050565b611694816115dc565b82525050565b60c0820160008201516116b0600085018261167c565b5060208201516116c3602085018261167c565b5060408201516116d6604085018261168b565b5060608201516116e9606085018261168b565b5060808201516116fc608085018261168b565b5060a082015161170f60a085018261168b565b50505050565b600060c08201905061172a600083018461169a565b92915050565b600080600080600060a0868803121561174c5761174b61154c565b5b600061175a8882890161159a565b955050602061176b88828901611627565b945050604061177c88828901611627565b935050606061178d88828901611627565b925050608061179e88828901611627565b9150509295509295909350565b6000806000606084860312156117c4576117c361154c565b5b60006117d28682870161159a565b93505060206117e386828701611627565b92505060406117f486828701611627565b9150509250925092565b600082825260208201905092915050565b7f496e697469616c697a61626c653a20636f6e747261637420697320616c72656160008201527f647920696e697469616c697a6564000000000000000000000000000000000000602082015250565b600061186b602e836117fe565b91506118768261180f565b604082019050919050565b6000602082019050818103600083015261189a8161185e565b9050919050565b6000819050919050565b600060ff82169050919050565b6000819050919050565b60006118dd6118d86118d3846118a1565b6118b8565b6118ab565b9050919050565b6118ed816118c2565b82525050565b600060208201905061190860008301846118e4565b92915050565b7f5468697320697320616c7265616479206c697374656400000000000000000000600082015250565b60006119446016836117fe565b915061194f8261190e565b602082019050919050565b6000602082019050818103600083015261197381611937565b9050919050565b60008151905061198981611583565b92915050565b6000602082840312156119a5576119a461154c565b5b60006119b38482850161197a565b91505092915050565b7f596f7520617265206e6f74206f776e6572206f6620746f6b656e000000000000600082015250565b60006119f2601a836117fe565b91506119fd826119bc565b602082019050919050565b60006020820190508181036000830152611a21816119e5565b9050919050565b7f4e6f7420617070726f766520666f72206d61726b657420706c61636500000000600082015250565b6000611a5e601c836117fe565b9150611a6982611a28565b602082019050919050565b60006020820190508181036000830152611a8d81611a51565b9050919050565b7f4e6f74206c697374656400000000000000000000000000000000000000000000600082015250565b6000611aca600a836117fe565b9150611ad582611a94565b602082019050919050565b60006020820190508181036000830152611af981611abd565b9050919050565b7f496e73756666696369656e742062616c616e6365000000000000000000000000600082015250565b6000611b366014836117fe565b9150611b4182611b00565b602082019050919050565b60006020820190508181036000830152611b6581611b29565b9050919050565b7f5265717569726564207175616e74697479206e6f7420617661696c61626c6500600082015250565b6000611ba2601f836117fe565b9150611bad82611b6c565b602082019050919050565b60006020820190508181036000830152611bd181611b95565b9050919050565b7f4e487b7100000000000000000000000000000000000000000000000000000000600052601160045260246000fd5b6000611c12826115dc565b9150611c1d836115dc565b9250828201905080821115611c3557611c34611bd8565b5b92915050565b611c4481611571565b82525050565b6000606082019050611c5f6000830186611c3b565b611c6c6020830185611c3b565b611c7960408301846115e6565b949350505050565b600082825260208201905092915050565b50565b6000611ca2600083611c81565b9150611cad82611c92565b600082019050919050565b600060a082019050611ccd6000830187611c3b565b611cda6020830186611c3b565b611ce760408301856115e6565b611cf460608301846115e6565b8181036080830152611d0581611c95565b905095945050505050565b6000611d1b826115dc565b9150611d26836115dc565b9250828202611d34816115dc565b91508282048414831517611d4b57611d4a611bd8565b5b5092915050565b7f4e487b7100000000000000000000000000000000000000000000000000000000600052601260045260246000fd5b6000611d8c826115dc565b9150611d97836115dc565b925082611da757611da6611d52565b5b828204905092915050565b7f5265656e7472616e637947756172643a207265656e7472616e742063616c6c00600082015250565b6000611de8601f836117fe565b9150611df382611db2565b602082019050919050565b60006020820190508181036000830152611e1781611ddb565b9050919050565b600081519050919050565b60005b83811015611e47578082015181840152602081019050611e2c565b60008484015250505050565b6000601f19601f8301169050919050565b6000611e6f82611e1e565b611e7981856117fe565b9350611e89818560208601611e29565b611e9281611e53565b840191505092915050565b60006040820190508181036000830152611eb78185611e64565b9050611ec660208301846115e6565b939250505056fea264697066735822122060aaa866d947dbbb4087b8ec5324d3498db6f4a672d3e3cf50eda6671017d5cc64736f6c63430008110033",
  "devdoc": {
    "kind": "dev",
    "methods": {},
    "version": 1
  },
  "userdoc": {
    "kind": "user",
    "methods": {},
    "version": 1
  },
  "storageLayout": {
    "storage": [
      {
        "astId": 6,
        "contract": "contracts/MarketUpgradable.sol:marketUpgrade",
        "label": "_initialized",
        "offset": 0,
        "slot": "0",
        "type": "t_uint8"
      },
      {
        "astId": 9,
        "contract": "contracts/MarketUpgradable.sol:marketUpgrade",
        "label": "_initializing",
        "offset": 1,
        "slot": "0",
        "type": "t_bool"
      },
      {
        "astId": 463,
        "contract": "contracts/MarketUpgradable.sol:marketUpgrade",
        "label": "_status",
        "offset": 0,
        "slot": "1",
        "type": "t_uint256"
      },
      {
        "astId": 2527,
        "contract": "contracts/MarketUpgradable.sol:marketUpgrade",
        "label": "Owner",
        "offset": 0,
        "slot": "2",
        "type": "t_address_payable"
      },
      {
        "astId": 2529,
        "contract": "contracts/MarketUpgradable.sol:marketUpgrade",
        "label": "NFT20",
        "offset": 0,
        "slot": "3",
        "type": "t_address"
      },
      {
        "astId": 2536,
        "contract": "contracts/MarketUpgradable.sol:marketUpgrade",
        "label": "s_listings",
        "offset": 0,
        "slot": "4",
        "type": "t_mapping(t_address,t_mapping(t_uint256,t_struct(Listing)2515_storage))"
      },
      {
        "astId": 2540,
        "contract": "contracts/MarketUpgradable.sol:marketUpgrade",
        "label": "s_proceeds",
        "offset": 0,
        "slot": "5",
        "type": "t_mapping(t_address,t_uint256)"
      }
    ],
    "types": {
      "t_address": {
        "encoding": "inplace",
        "label": "address",
        "numberOfBytes": "20"
      },
      "t_address_payable": {
        "encoding": "inplace",
        "label": "address payable",
        "numberOfBytes": "20"
      },
      "t_bool": {
        "encoding": "inplace",
        "label": "bool",
        "numberOfBytes": "1"
      },
      "t_mapping(t_address,t_mapping(t_uint256,t_struct(Listing)2515_storage))": {
        "encoding": "mapping",
        "key": "t_address",
        "label": "mapping(address => mapping(uint256 => struct marketUpgrade.Listing))",
        "numberOfBytes": "32",
        "value": "t_mapping(t_uint256,t_struct(Listing)2515_storage)"
      },
      "t_mapping(t_address,t_uint256)": {
        "encoding": "mapping",
        "key": "t_address",
        "label": "mapping(address => uint256)",
        "numberOfBytes": "32",
        "value": "t_uint256"
      },
      "t_mapping(t_uint256,t_struct(Listing)2515_storage)": {
        "encoding": "mapping",
        "key": "t_uint256",
        "label": "mapping(uint256 => struct marketUpgrade.Listing)",
        "numberOfBytes": "32",
        "value": "t_struct(Listing)2515_storage"
      },
      "t_struct(Listing)2515_storage": {
        "encoding": "inplace",
        "label": "struct marketUpgrade.Listing",
        "members": [
          {
            "astId": 2504,
            "contract": "contracts/MarketUpgradable.sol:marketUpgrade",
            "label": "nftAddress",
            "offset": 0,
            "slot": "0",
            "type": "t_address"
          },
          {
            "astId": 2506,
            "contract": "contracts/MarketUpgradable.sol:marketUpgrade",
            "label": "seller",
            "offset": 0,
            "slot": "1",
            "type": "t_address"
          },
          {
            "astId": 2508,
            "contract": "contracts/MarketUpgradable.sol:marketUpgrade",
            "label": "tokenId",
            "offset": 0,
            "slot": "2",
            "type": "t_uint256"
          },
          {
            "astId": 2510,
            "contract": "contracts/MarketUpgradable.sol:marketUpgrade",
            "label": "price",
            "offset": 0,
            "slot": "3",
            "type": "t_uint256"
          },
          {
            "astId": 2512,
            "contract": "contracts/MarketUpgradable.sol:marketUpgrade",
            "label": "quantity",
            "offset": 0,
            "slot": "4",
            "type": "t_uint256"
          },
          {
            "astId": 2514,
            "contract": "contracts/MarketUpgradable.sol:marketUpgrade",
            "label": "nftType",
            "offset": 0,
            "slot": "5",
            "type": "t_uint256"
          }
        ],
        "numberOfBytes": "192"
      },
      "t_uint256": {
        "encoding": "inplace",
        "label": "uint256",
        "numberOfBytes": "32"
      },
      "t_uint8": {
        "encoding": "inplace",
        "label": "uint8",
        "numberOfBytes": "1"
      }
    }
  }
}