{
  "address": "0x663F3ad617193148711d28f5334eE4Ed07016602",
  "abi": [
    {
      "inputs": [],
      "stateMutability": "nonpayable",
      "type": "constructor"
    },
    {
      "anonymous": false,
      "inputs": [
        {
          "indexed": true,
          "internalType": "address",
          "name": "account",
          "type": "address"
        },
        {
          "indexed": true,
          "internalType": "address",
          "name": "operator",
          "type": "address"
        },
        {
          "indexed": false,
          "internalType": "bool",
          "name": "approved",
          "type": "bool"
        }
      ],
      "name": "ApprovalForAll",
      "type": "event"
    },
    {
      "anonymous": false,
      "inputs": [
        {
          "indexed": true,
          "internalType": "address",
          "name": "previousOwner",
          "type": "address"
        },
        {
          "indexed": true,
          "internalType": "address",
          "name": "newOwner",
          "type": "address"
        }
      ],
      "name": "OwnershipTransferred",
      "type": "event"
    },
    {
      "anonymous": false,
      "inputs": [
        {
          "indexed": true,
          "internalType": "address",
          "name": "operator",
          "type": "address"
        },
        {
          "indexed": true,
          "internalType": "address",
          "name": "from",
          "type": "address"
        },
        {
          "indexed": true,
          "internalType": "address",
          "name": "to",
          "type": "address"
        },
        {
          "indexed": false,
          "internalType": "uint256[]",
          "name": "ids",
          "type": "uint256[]"
        },
        {
          "indexed": false,
          "internalType": "uint256[]",
          "name": "values",
          "type": "uint256[]"
        }
      ],
      "name": "TransferBatch",
      "type": "event"
    },
    {
      "anonymous": false,
      "inputs": [
        {
          "indexed": true,
          "internalType": "address",
          "name": "operator",
          "type": "address"
        },
        {
          "indexed": true,
          "internalType": "address",
          "name": "from",
          "type": "address"
        },
        {
          "indexed": true,
          "internalType": "address",
          "name": "to",
          "type": "address"
        },
        {
          "indexed": false,
          "internalType": "uint256",
          "name": "id",
          "type": "uint256"
        },
        {
          "indexed": false,
          "internalType": "uint256",
          "name": "value",
          "type": "uint256"
        }
      ],
      "name": "TransferSingle",
      "type": "event"
    },
    {
      "anonymous": false,
      "inputs": [
        {
          "indexed": false,
          "internalType": "string",
          "name": "value",
          "type": "string"
        },
        {
          "indexed": true,
          "internalType": "uint256",
          "name": "id",
          "type": "uint256"
        }
      ],
      "name": "URI",
      "type": "event"
    },
    {
      "inputs": [
        {
          "internalType": "address",
          "name": "account",
          "type": "address"
        },
        {
          "internalType": "uint256",
          "name": "id",
          "type": "uint256"
        }
      ],
      "name": "balanceOf",
      "outputs": [
        {
          "internalType": "uint256",
          "name": "",
          "type": "uint256"
        }
      ],
      "stateMutability": "view",
      "type": "function"
    },
    {
      "inputs": [
        {
          "internalType": "address[]",
          "name": "accounts",
          "type": "address[]"
        },
        {
          "internalType": "uint256[]",
          "name": "ids",
          "type": "uint256[]"
        }
      ],
      "name": "balanceOfBatch",
      "outputs": [
        {
          "internalType": "uint256[]",
          "name": "",
          "type": "uint256[]"
        }
      ],
      "stateMutability": "view",
      "type": "function"
    },
    {
      "inputs": [
        {
          "internalType": "address",
          "name": "account",
          "type": "address"
        },
        {
          "internalType": "address",
          "name": "operator",
          "type": "address"
        }
      ],
      "name": "isApprovedForAll",
      "outputs": [
        {
          "internalType": "bool",
          "name": "",
          "type": "bool"
        }
      ],
      "stateMutability": "view",
      "type": "function"
    },
    {
      "inputs": [
        {
          "internalType": "address",
          "name": "account",
          "type": "address"
        },
        {
          "internalType": "uint256",
          "name": "amount",
          "type": "uint256"
        }
      ],
      "name": "mint",
      "outputs": [],
      "stateMutability": "nonpayable",
      "type": "function"
    },
    {
      "inputs": [],
      "name": "owner",
      "outputs": [
        {
          "internalType": "address",
          "name": "",
          "type": "address"
        }
      ],
      "stateMutability": "view",
      "type": "function"
    },
    {
      "inputs": [],
      "name": "renounceOwnership",
      "outputs": [],
      "stateMutability": "nonpayable",
      "type": "function"
    },
    {
      "inputs": [
        {
          "internalType": "address",
          "name": "from",
          "type": "address"
        },
        {
          "internalType": "address",
          "name": "to",
          "type": "address"
        },
        {
          "internalType": "uint256[]",
          "name": "ids",
          "type": "uint256[]"
        },
        {
          "internalType": "uint256[]",
          "name": "amounts",
          "type": "uint256[]"
        },
        {
          "internalType": "bytes",
          "name": "data",
          "type": "bytes"
        }
      ],
      "name": "safeBatchTransferFrom",
      "outputs": [],
      "stateMutability": "nonpayable",
      "type": "function"
    },
    {
      "inputs": [
        {
          "internalType": "address",
          "name": "from",
          "type": "address"
        },
        {
          "internalType": "address",
          "name": "to",
          "type": "address"
        },
        {
          "internalType": "uint256",
          "name": "id",
          "type": "uint256"
        },
        {
          "internalType": "uint256",
          "name": "amount",
          "type": "uint256"
        },
        {
          "internalType": "bytes",
          "name": "data",
          "type": "bytes"
        }
      ],
      "name": "safeTransferFrom",
      "outputs": [],
      "stateMutability": "nonpayable",
      "type": "function"
    },
    {
      "inputs": [
        {
          "internalType": "address",
          "name": "operator",
          "type": "address"
        },
        {
          "internalType": "bool",
          "name": "approved",
          "type": "bool"
        }
      ],
      "name": "setApprovalForAll",
      "outputs": [],
      "stateMutability": "nonpayable",
      "type": "function"
    },
    {
      "inputs": [
        {
          "internalType": "bytes4",
          "name": "interfaceId",
          "type": "bytes4"
        }
      ],
      "name": "supportsInterface",
      "outputs": [
        {
          "internalType": "bool",
          "name": "",
          "type": "bool"
        }
      ],
      "stateMutability": "view",
      "type": "function"
    },
    {
      "inputs": [
        {
          "internalType": "address",
          "name": "newOwner",
          "type": "address"
        }
      ],
      "name": "transferOwnership",
      "outputs": [],
      "stateMutability": "nonpayable",
      "type": "function"
    },
    {
      "inputs": [
        {
          "internalType": "uint256",
          "name": "",
          "type": "uint256"
        }
      ],
      "name": "uri",
      "outputs": [
        {
          "internalType": "string",
          "name": "",
          "type": "string"
        }
      ],
      "stateMutability": "view",
      "type": "function"
    }
  ],
  "transactionHash": "0x6036c530d3e3a663d17987bd3049d0d92819cfe7ec7a8c66678700c20f7e2608",
  "args": [],
  "numDeployments": 1,
  "solcInputHash": "9eb5cfa69943879d49ad36732d06f153",
  "bytecode": "0x608060405260006004553480156200001657600080fd5b506040518060400160405280600781526020017f45544831313535000000000000000000000000000000000000000000000000008152506200005e816200008560201b60201c565b506200007f620000736200009a60201b60201c565b620000a260201b60201c565b620004c9565b8060029081620000969190620003e2565b5050565b600033905090565b6000600360009054906101000a900473ffffffffffffffffffffffffffffffffffffffff16905081600360006101000a81548173ffffffffffffffffffffffffffffffffffffffff021916908373ffffffffffffffffffffffffffffffffffffffff1602179055508173ffffffffffffffffffffffffffffffffffffffff168173ffffffffffffffffffffffffffffffffffffffff167f8be0079c531659141344cd1fd0a4f28419497f9722a3daafe3b4186f6b6457e060405160405180910390a35050565b600081519050919050565b7f4e487b7100000000000000000000000000000000000000000000000000000000600052604160045260246000fd5b7f4e487b7100000000000000000000000000000000000000000000000000000000600052602260045260246000fd5b60006002820490506001821680620001ea57607f821691505b6020821081036200020057620001ff620001a2565b5b50919050565b60008190508160005260206000209050919050565b60006020601f8301049050919050565b600082821b905092915050565b6000600883026200026a7fffffffffffffffffffffffffffffffffffffffffffffffffffffffffffffffff826200022b565b6200027686836200022b565b95508019841693508086168417925050509392505050565b6000819050919050565b6000819050919050565b6000620002c3620002bd620002b7846200028e565b62000298565b6200028e565b9050919050565b6000819050919050565b620002df83620002a2565b620002f7620002ee82620002ca565b84845462000238565b825550505050565b600090565b6200030e620002ff565b6200031b818484620002d4565b505050565b5b8181101562000343576200033760008262000304565b60018101905062000321565b5050565b601f82111562000392576200035c8162000206565b62000367846200021b565b8101602085101562000377578190505b6200038f62000386856200021b565b83018262000320565b50505b505050565b600082821c905092915050565b6000620003b76000198460080262000397565b1980831691505092915050565b6000620003d28383620003a4565b9150826002028217905092915050565b620003ed8262000168565b67ffffffffffffffff81111562000409576200040862000173565b5b620004158254620001d1565b6200042282828562000347565b600060209050601f8311600181146200045a576000841562000445578287015190505b620004518582620003c4565b865550620004c1565b601f1984166200046a8662000206565b60005b8281101562000494578489015182556001820191506020850194506020810190506200046d565b86831015620004b45784890151620004b0601f891682620003a4565b8355505b6001600288020188555050505b505050505050565b612b4980620004d96000396000f3fe608060405234801561001057600080fd5b50600436106100b35760003560e01c8063715018a611610071578063715018a6146101b05780638da5cb5b146101ba578063a22cb465146101d8578063e985e9c5146101f4578063f242432a14610224578063f2fde38b14610240576100b3565b8062fdd58e146100b857806301ffc9a7146100e85780630e89341c146101185780632eb2c2d61461014857806340c10f19146101645780634e1273f414610180575b600080fd5b6100d260048036038101906100cd919061182a565b61025c565b6040516100df9190611879565b60405180910390f35b61010260048036038101906100fd91906118ec565b610324565b60405161010f9190611934565b60405180910390f35b610132600480360381019061012d919061194f565b610406565b60405161013f9190611a0c565b60405180910390f35b610162600480360381019061015d9190611c2b565b61049a565b005b61017e6004803603810190610179919061182a565b61053b565b005b61019a60048036038101906101959190611dbd565b610574565b6040516101a79190611ef3565b60405180910390f35b6101b861068d565b005b6101c26106a1565b6040516101cf9190611f24565b60405180910390f35b6101f260048036038101906101ed9190611f6b565b6106cb565b005b61020e60048036038101906102099190611fab565b6106e1565b60405161021b9190611934565b60405180910390f35b61023e60048036038101906102399190611feb565b610775565b005b61025a60048036038101906102559190612082565b610816565b005b60008073ffffffffffffffffffffffffffffffffffffffff168373ffffffffffffffffffffffffffffffffffffffff16036102cc576040517f08c379a00000000000000000000000000000000000000000000000000000000081526004016102c390612121565b60405180910390fd5b60008083815260200190815260200160002060008473ffffffffffffffffffffffffffffffffffffffff1673ffffffffffffffffffffffffffffffffffffffff16815260200190815260200160002054905092915050565b60007fd9b67a26000000000000000000000000000000000000000000000000000000007bffffffffffffffffffffffffffffffffffffffffffffffffffffffff1916827bffffffffffffffffffffffffffffffffffffffffffffffffffffffff191614806103ef57507f0e89341c000000000000000000000000000000000000000000000000000000007bffffffffffffffffffffffffffffffffffffffffffffffffffffffff1916827bffffffffffffffffffffffffffffffffffffffffffffffffffffffff1916145b806103ff57506103fe82610899565b5b9050919050565b60606002805461041590612170565b80601f016020809104026020016040519081016040528092919081815260200182805461044190612170565b801561048e5780601f106104635761010080835404028352916020019161048e565b820191906000526020600020905b81548152906001019060200180831161047157829003601f168201915b50505050509050919050565b6104a2610903565b73ffffffffffffffffffffffffffffffffffffffff168573ffffffffffffffffffffffffffffffffffffffff1614806104e857506104e7856104e2610903565b6106e1565b5b610527576040517f08c379a000000000000000000000000000000000000000000000000000000000815260040161051e90612213565b60405180910390fd5b610534858585858561090b565b5050505050565b6004600081548092919061054e90612262565b9190505550610570826004548360405180602001604052806000815250610c2c565b5050565b606081518351146105ba576040517f08c379a00000000000000000000000000000000000000000000000000000000081526004016105b19061231c565b60405180910390fd5b6000835167ffffffffffffffff8111156105d7576105d6611a33565b5b6040519080825280602002602001820160405280156106055781602001602082028036833780820191505090505b50905060005b84518110156106825761065285828151811061062a5761062961233c565b5b60200260200101518583815181106106455761064461233c565b5b602002602001015161025c565b8282815181106106655761066461233c565b5b6020026020010181815250508061067b90612262565b905061060b565b508091505092915050565b610695610ddc565b61069f6000610e5a565b565b6000600360009054906101000a900473ffffffffffffffffffffffffffffffffffffffff16905090565b6106dd6106d6610903565b8383610f20565b5050565b6000600160008473ffffffffffffffffffffffffffffffffffffffff1673ffffffffffffffffffffffffffffffffffffffff16815260200190815260200160002060008373ffffffffffffffffffffffffffffffffffffffff1673ffffffffffffffffffffffffffffffffffffffff16815260200190815260200160002060009054906101000a900460ff16905092915050565b61077d610903565b73ffffffffffffffffffffffffffffffffffffffff168573ffffffffffffffffffffffffffffffffffffffff1614806107c357506107c2856107bd610903565b6106e1565b5b610802576040517f08c379a00000000000000000000000000000000000000000000000000000000081526004016107f990612213565b60405180910390fd5b61080f858585858561108c565b5050505050565b61081e610ddc565b600073ffffffffffffffffffffffffffffffffffffffff168173ffffffffffffffffffffffffffffffffffffffff160361088d576040517f08c379a0000000000000000000000000000000000000000000000000000000008152600401610884906123dd565b60405180910390fd5b61089681610e5a565b50565b60007f01ffc9a7000000000000000000000000000000000000000000000000000000007bffffffffffffffffffffffffffffffffffffffffffffffffffffffff1916827bffffffffffffffffffffffffffffffffffffffffffffffffffffffff1916149050919050565b600033905090565b815183511461094f576040517f08c379a00000000000000000000000000000000000000000000000000000000081526004016109469061246f565b60405180910390fd5b600073ffffffffffffffffffffffffffffffffffffffff168473ffffffffffffffffffffffffffffffffffffffff16036109be576040517f08c379a00000000000000000000000000000000000000000000000000000000081526004016109b590612501565b60405180910390fd5b60006109c8610903565b90506109d8818787878787611327565b60005b8451811015610b895760008582815181106109f9576109f861233c565b5b602002602001015190506000858381518110610a1857610a1761233c565b5b60200260200101519050600080600084815260200190815260200160002060008b73ffffffffffffffffffffffffffffffffffffffff1673ffffffffffffffffffffffffffffffffffffffff16815260200190815260200160002054905081811015610ab9576040517f08c379a0000000000000000000000000000000000000000000000000000000008152600401610ab090612593565b60405180910390fd5b81810360008085815260200190815260200160002060008c73ffffffffffffffffffffffffffffffffffffffff1673ffffffffffffffffffffffffffffffffffffffff168152602001908152602001600020819055508160008085815260200190815260200160002060008b73ffffffffffffffffffffffffffffffffffffffff1673ffffffffffffffffffffffffffffffffffffffff1681526020019081526020016000206000828254610b6e91906125b3565b9250508190555050505080610b8290612262565b90506109db565b508473ffffffffffffffffffffffffffffffffffffffff168673ffffffffffffffffffffffffffffffffffffffff168273ffffffffffffffffffffffffffffffffffffffff167f4a39dc06d4c0dbc64b70af90fd698a233a518aa5d07e595d983b8c0526c8f7fb8787604051610c009291906125e7565b60405180910390a4610c1681878787878761132f565b610c24818787878787611337565b505050505050565b600073ffffffffffffffffffffffffffffffffffffffff168473ffffffffffffffffffffffffffffffffffffffff1603610c9b576040517f08c379a0000000000000000000000000000000000000000000000000000000008152600401610c9290612690565b60405180910390fd5b6000610ca5610903565b90506000610cb28561150e565b90506000610cbf8561150e565b9050610cd083600089858589611327565b8460008088815260200190815260200160002060008973ffffffffffffffffffffffffffffffffffffffff1673ffffffffffffffffffffffffffffffffffffffff1681526020019081526020016000206000828254610d2f91906125b3565b925050819055508673ffffffffffffffffffffffffffffffffffffffff16600073ffffffffffffffffffffffffffffffffffffffff168473ffffffffffffffffffffffffffffffffffffffff167fc3d58168c5ae7397731d063d5bbf3d657854427343f4c083240f7aacaa2d0f628989604051610dad9291906126b0565b60405180910390a4610dc48360008985858961132f565b610dd383600089898989611588565b50505050505050565b610de4610903565b73ffffffffffffffffffffffffffffffffffffffff16610e026106a1565b73ffffffffffffffffffffffffffffffffffffffff1614610e58576040517f08c379a0000000000000000000000000000000000000000000000000000000008152600401610e4f90612725565b60405180910390fd5b565b6000600360009054906101000a900473ffffffffffffffffffffffffffffffffffffffff16905081600360006101000a81548173ffffffffffffffffffffffffffffffffffffffff021916908373ffffffffffffffffffffffffffffffffffffffff1602179055508173ffffffffffffffffffffffffffffffffffffffff168173ffffffffffffffffffffffffffffffffffffffff167f8be0079c531659141344cd1fd0a4f28419497f9722a3daafe3b4186f6b6457e060405160405180910390a35050565b8173ffffffffffffffffffffffffffffffffffffffff168373ffffffffffffffffffffffffffffffffffffffff1603610f8e576040517f08c379a0000000000000000000000000000000000000000000000000000000008152600401610f85906127b7565b60405180910390fd5b80600160008573ffffffffffffffffffffffffffffffffffffffff1673ffffffffffffffffffffffffffffffffffffffff16815260200190815260200160002060008473ffffffffffffffffffffffffffffffffffffffff1673ffffffffffffffffffffffffffffffffffffffff16815260200190815260200160002060006101000a81548160ff0219169083151502179055508173ffffffffffffffffffffffffffffffffffffffff168373ffffffffffffffffffffffffffffffffffffffff167f17307eab39ab6107e8899845ad3d59bd9653f200f220920489ca2b5937696c318360405161107f9190611934565b60405180910390a3505050565b600073ffffffffffffffffffffffffffffffffffffffff168473ffffffffffffffffffffffffffffffffffffffff16036110fb576040517f08c379a00000000000000000000000000000000000000000000000000000000081526004016110f290612501565b60405180910390fd5b6000611105610903565b905060006111128561150e565b9050600061111f8561150e565b905061112f838989858589611327565b600080600088815260200190815260200160002060008a73ffffffffffffffffffffffffffffffffffffffff1673ffffffffffffffffffffffffffffffffffffffff168152602001908152602001600020549050858110156111c6576040517f08c379a00000000000000000000000000000000000000000000000000000000081526004016111bd90612593565b60405180910390fd5b85810360008089815260200190815260200160002060008b73ffffffffffffffffffffffffffffffffffffffff1673ffffffffffffffffffffffffffffffffffffffff168152602001908152602001600020819055508560008089815260200190815260200160002060008a73ffffffffffffffffffffffffffffffffffffffff1673ffffffffffffffffffffffffffffffffffffffff168152602001908152602001600020600082825461127b91906125b3565b925050819055508773ffffffffffffffffffffffffffffffffffffffff168973ffffffffffffffffffffffffffffffffffffffff168573ffffffffffffffffffffffffffffffffffffffff167fc3d58168c5ae7397731d063d5bbf3d657854427343f4c083240f7aacaa2d0f628a8a6040516112f89291906126b0565b60405180910390a461130e848a8a86868a61132f565b61131c848a8a8a8a8a611588565b505050505050505050565b505050505050565b505050505050565b6113568473ffffffffffffffffffffffffffffffffffffffff1661175f565b15611506578373ffffffffffffffffffffffffffffffffffffffff1663bc197c8187878686866040518663ffffffff1660e01b815260040161139c95949392919061282c565b6020604051808303816000875af19250505080156113d857506040513d601f19601f820116820180604052508101906113d591906128a9565b60015b61147d576113e46128e3565b806308c379a00361144057506113f8612905565b806114035750611442565b806040517f08c379a00000000000000000000000000000000000000000000000000000000081526004016114379190611a0c565b60405180910390fd5b505b6040517f08c379a000000000000000000000000000000000000000000000000000000000815260040161147490612a07565b60405180910390fd5b63bc197c8160e01b7bffffffffffffffffffffffffffffffffffffffffffffffffffffffff1916817bffffffffffffffffffffffffffffffffffffffffffffffffffffffff191614611504576040517f08c379a00000000000000000000000000000000000000000000000000000000081526004016114fb90612a99565b60405180910390fd5b505b505050505050565b60606000600167ffffffffffffffff81111561152d5761152c611a33565b5b60405190808252806020026020018201604052801561155b5781602001602082028036833780820191505090505b50905082816000815181106115735761157261233c565b5b60200260200101818152505080915050919050565b6115a78473ffffffffffffffffffffffffffffffffffffffff1661175f565b15611757578373ffffffffffffffffffffffffffffffffffffffff1663f23a6e6187878686866040518663ffffffff1660e01b81526004016115ed959493929190612ab9565b6020604051808303816000875af192505050801561162957506040513d601f19601f8201168201806040525081019061162691906128a9565b60015b6116ce576116356128e3565b806308c379a0036116915750611649612905565b806116545750611693565b806040517f08c379a00000000000000000000000000000000000000000000000000000000081526004016116889190611a0c565b60405180910390fd5b505b6040517f08c379a00000000000000000000000000000000000000000000000000000000081526004016116c590612a07565b60405180910390fd5b63f23a6e6160e01b7bffffffffffffffffffffffffffffffffffffffffffffffffffffffff1916817bffffffffffffffffffffffffffffffffffffffffffffffffffffffff191614611755576040517f08c379a000000000000000000000000000000000000000000000000000000000815260040161174c90612a99565b60405180910390fd5b505b505050505050565b6000808273ffffffffffffffffffffffffffffffffffffffff163b119050919050565b6000604051905090565b600080fd5b600080fd5b600073ffffffffffffffffffffffffffffffffffffffff82169050919050565b60006117c182611796565b9050919050565b6117d1816117b6565b81146117dc57600080fd5b50565b6000813590506117ee816117c8565b92915050565b6000819050919050565b611807816117f4565b811461181257600080fd5b50565b600081359050611824816117fe565b92915050565b600080604083850312156118415761184061178c565b5b600061184f858286016117df565b925050602061186085828601611815565b9150509250929050565b611873816117f4565b82525050565b600060208201905061188e600083018461186a565b92915050565b60007fffffffff0000000000000000000000000000000000000000000000000000000082169050919050565b6118c981611894565b81146118d457600080fd5b50565b6000813590506118e6816118c0565b92915050565b6000602082840312156119025761190161178c565b5b6000611910848285016118d7565b91505092915050565b60008115159050919050565b61192e81611919565b82525050565b60006020820190506119496000830184611925565b92915050565b6000602082840312156119655761196461178c565b5b600061197384828501611815565b91505092915050565b600081519050919050565b600082825260208201905092915050565b60005b838110156119b657808201518184015260208101905061199b565b60008484015250505050565b6000601f19601f8301169050919050565b60006119de8261197c565b6119e88185611987565b93506119f8818560208601611998565b611a01816119c2565b840191505092915050565b60006020820190508181036000830152611a2681846119d3565b905092915050565b600080fd5b7f4e487b7100000000000000000000000000000000000000000000000000000000600052604160045260246000fd5b611a6b826119c2565b810181811067ffffffffffffffff82111715611a8a57611a89611a33565b5b80604052505050565b6000611a9d611782565b9050611aa98282611a62565b919050565b600067ffffffffffffffff821115611ac957611ac8611a33565b5b602082029050602081019050919050565b600080fd5b6000611af2611aed84611aae565b611a93565b90508083825260208201905060208402830185811115611b1557611b14611ada565b5b835b81811015611b3e5780611b2a8882611815565b845260208401935050602081019050611b17565b5050509392505050565b600082601f830112611b5d57611b5c611a2e565b5b8135611b6d848260208601611adf565b91505092915050565b600080fd5b600067ffffffffffffffff821115611b9657611b95611a33565b5b611b9f826119c2565b9050602081019050919050565b82818337600083830152505050565b6000611bce611bc984611b7b565b611a93565b905082815260208101848484011115611bea57611be9611b76565b5b611bf5848285611bac565b509392505050565b600082601f830112611c1257611c11611a2e565b5b8135611c22848260208601611bbb565b91505092915050565b600080600080600060a08688031215611c4757611c4661178c565b5b6000611c55888289016117df565b9550506020611c66888289016117df565b945050604086013567ffffffffffffffff811115611c8757611c86611791565b5b611c9388828901611b48565b935050606086013567ffffffffffffffff811115611cb457611cb3611791565b5b611cc088828901611b48565b925050608086013567ffffffffffffffff811115611ce157611ce0611791565b5b611ced88828901611bfd565b9150509295509295909350565b600067ffffffffffffffff821115611d1557611d14611a33565b5b602082029050602081019050919050565b6000611d39611d3484611cfa565b611a93565b90508083825260208201905060208402830185811115611d5c57611d5b611ada565b5b835b81811015611d855780611d7188826117df565b845260208401935050602081019050611d5e565b5050509392505050565b600082601f830112611da457611da3611a2e565b5b8135611db4848260208601611d26565b91505092915050565b60008060408385031215611dd457611dd361178c565b5b600083013567ffffffffffffffff811115611df257611df1611791565b5b611dfe85828601611d8f565b925050602083013567ffffffffffffffff811115611e1f57611e1e611791565b5b611e2b85828601611b48565b9150509250929050565b600081519050919050565b600082825260208201905092915050565b6000819050602082019050919050565b611e6a816117f4565b82525050565b6000611e7c8383611e61565b60208301905092915050565b6000602082019050919050565b6000611ea082611e35565b611eaa8185611e40565b9350611eb583611e51565b8060005b83811015611ee6578151611ecd8882611e70565b9750611ed883611e88565b925050600181019050611eb9565b5085935050505092915050565b60006020820190508181036000830152611f0d8184611e95565b905092915050565b611f1e816117b6565b82525050565b6000602082019050611f396000830184611f15565b92915050565b611f4881611919565b8114611f5357600080fd5b50565b600081359050611f6581611f3f565b92915050565b60008060408385031215611f8257611f8161178c565b5b6000611f90858286016117df565b9250506020611fa185828601611f56565b9150509250929050565b60008060408385031215611fc257611fc161178c565b5b6000611fd0858286016117df565b9250506020611fe1858286016117df565b9150509250929050565b600080600080600060a086880312156120075761200661178c565b5b6000612015888289016117df565b9550506020612026888289016117df565b945050604061203788828901611815565b935050606061204888828901611815565b925050608086013567ffffffffffffffff81111561206957612068611791565b5b61207588828901611bfd565b9150509295509295909350565b6000602082840312156120985761209761178c565b5b60006120a6848285016117df565b91505092915050565b7f455243313135353a2061646472657373207a65726f206973206e6f742061207660008201527f616c6964206f776e657200000000000000000000000000000000000000000000602082015250565b600061210b602a83611987565b9150612116826120af565b604082019050919050565b6000602082019050818103600083015261213a816120fe565b9050919050565b7f4e487b7100000000000000000000000000000000000000000000000000000000600052602260045260246000fd5b6000600282049050600182168061218857607f821691505b60208210810361219b5761219a612141565b5b50919050565b7f455243313135353a2063616c6c6572206973206e6f7420746f6b656e206f776e60008201527f6572206f7220617070726f766564000000000000000000000000000000000000602082015250565b60006121fd602e83611987565b9150612208826121a1565b604082019050919050565b6000602082019050818103600083015261222c816121f0565b9050919050565b7f4e487b7100000000000000000000000000000000000000000000000000000000600052601160045260246000fd5b600061226d826117f4565b91507fffffffffffffffffffffffffffffffffffffffffffffffffffffffffffffffff820361229f5761229e612233565b5b600182019050919050565b7f455243313135353a206163636f756e747320616e6420696473206c656e67746860008201527f206d69736d617463680000000000000000000000000000000000000000000000602082015250565b6000612306602983611987565b9150612311826122aa565b604082019050919050565b60006020820190508181036000830152612335816122f9565b9050919050565b7f4e487b7100000000000000000000000000000000000000000000000000000000600052603260045260246000fd5b7f4f776e61626c653a206e6577206f776e657220697320746865207a65726f206160008201527f6464726573730000000000000000000000000000000000000000000000000000602082015250565b60006123c7602683611987565b91506123d28261236b565b604082019050919050565b600060208201905081810360008301526123f6816123ba565b9050919050565b7f455243313135353a2069647320616e6420616d6f756e7473206c656e6774682060008201527f6d69736d61746368000000000000000000000000000000000000000000000000602082015250565b6000612459602883611987565b9150612464826123fd565b604082019050919050565b600060208201905081810360008301526124888161244c565b9050919050565b7f455243313135353a207472616e7366657220746f20746865207a65726f20616460008201527f6472657373000000000000000000000000000000000000000000000000000000602082015250565b60006124eb602583611987565b91506124f68261248f565b604082019050919050565b6000602082019050818103600083015261251a816124de565b9050919050565b7f455243313135353a20696e73756666696369656e742062616c616e636520666f60008201527f72207472616e7366657200000000000000000000000000000000000000000000602082015250565b600061257d602a83611987565b915061258882612521565b604082019050919050565b600060208201905081810360008301526125ac81612570565b9050919050565b60006125be826117f4565b91506125c9836117f4565b92508282019050808211156125e1576125e0612233565b5b92915050565b600060408201905081810360008301526126018185611e95565b905081810360208301526126158184611e95565b90509392505050565b7f455243313135353a206d696e7420746f20746865207a65726f2061646472657360008201527f7300000000000000000000000000000000000000000000000000000000000000602082015250565b600061267a602183611987565b91506126858261261e565b604082019050919050565b600060208201905081810360008301526126a98161266d565b9050919050565b60006040820190506126c5600083018561186a565b6126d2602083018461186a565b9392505050565b7f4f776e61626c653a2063616c6c6572206973206e6f7420746865206f776e6572600082015250565b600061270f602083611987565b915061271a826126d9565b602082019050919050565b6000602082019050818103600083015261273e81612702565b9050919050565b7f455243313135353a2073657474696e6720617070726f76616c2073746174757360008201527f20666f722073656c660000000000000000000000000000000000000000000000602082015250565b60006127a1602983611987565b91506127ac82612745565b604082019050919050565b600060208201905081810360008301526127d081612794565b9050919050565b600081519050919050565b600082825260208201905092915050565b60006127fe826127d7565b61280881856127e2565b9350612818818560208601611998565b612821816119c2565b840191505092915050565b600060a0820190506128416000830188611f15565b61284e6020830187611f15565b81810360408301526128608186611e95565b905081810360608301526128748185611e95565b9050818103608083015261288881846127f3565b90509695505050505050565b6000815190506128a3816118c0565b92915050565b6000602082840312156128bf576128be61178c565b5b60006128cd84828501612894565b91505092915050565b60008160e01c9050919050565b600060033d11156129025760046000803e6128ff6000516128d6565b90505b90565b600060443d1061299257612917611782565b60043d036004823e80513d602482011167ffffffffffffffff8211171561293f575050612992565b808201805167ffffffffffffffff81111561295d5750505050612992565b80602083010160043d03850181111561297a575050505050612992565b61298982602001850186611a62565b82955050505050505b90565b7f455243313135353a207472616e7366657220746f206e6f6e2d4552433131353560008201527f526563656976657220696d706c656d656e746572000000000000000000000000602082015250565b60006129f1603483611987565b91506129fc82612995565b604082019050919050565b60006020820190508181036000830152612a20816129e4565b9050919050565b7f455243313135353a204552433131353552656365697665722072656a6563746560008201527f6420746f6b656e73000000000000000000000000000000000000000000000000602082015250565b6000612a83602883611987565b9150612a8e82612a27565b604082019050919050565b60006020820190508181036000830152612ab281612a76565b9050919050565b600060a082019050612ace6000830188611f15565b612adb6020830187611f15565b612ae8604083018661186a565b612af5606083018561186a565b8181036080830152612b0781846127f3565b9050969550505050505056fea2646970667358221220796eeb959f2f3e565ce3ee0d387f5282056910b737d02dd0bb420e3ba1ec44e364736f6c63430008110033",
  "devdoc": {
    "kind": "dev",
    "methods": {
      "balanceOf(address,uint256)": {
        "details": "See {IERC1155-balanceOf}. Requirements: - `account` cannot be the zero address."
      },
      "balanceOfBatch(address[],uint256[])": {
        "details": "See {IERC1155-balanceOfBatch}. Requirements: - `accounts` and `ids` must have the same length."
      },
      "isApprovedForAll(address,address)": {
        "details": "See {IERC1155-isApprovedForAll}."
      },
      "owner()": {
        "details": "Returns the address of the current owner."
      },
      "renounceOwnership()": {
        "details": "Leaves the contract without owner. It will not be possible to call `onlyOwner` functions anymore. Can only be called by the current owner. NOTE: Renouncing ownership will leave the contract without an owner, thereby removing any functionality that is only available to the owner."
      },
      "safeBatchTransferFrom(address,address,uint256[],uint256[],bytes)": {
        "details": "See {IERC1155-safeBatchTransferFrom}."
      },
      "safeTransferFrom(address,address,uint256,uint256,bytes)": {
        "details": "See {IERC1155-safeTransferFrom}."
      },
      "setApprovalForAll(address,bool)": {
        "details": "See {IERC1155-setApprovalForAll}."
      },
      "supportsInterface(bytes4)": {
        "details": "See {IERC165-supportsInterface}."
      },
      "transferOwnership(address)": {
        "details": "Transfers ownership of the contract to a new account (`newOwner`). Can only be called by the current owner."
      },
      "uri(uint256)": {
        "details": "See {IERC1155MetadataURI-uri}. This implementation returns the same URI for *all* token types. It relies on the token type ID substitution mechanism https://eips.ethereum.org/EIPS/eip-1155#metadata[defined in the EIP]. Clients calling this function must replace the `\\{id\\}` substring with the actual token type ID."
      }
    },
    "version": 1
  },
  "userdoc": {
    "kind": "user",
    "methods": {},
    "version": 1
  },
  "storageLayout": {
    "storage": [
      {
        "astId": 192,
        "contract": "contracts/erc1155.sol:NFT1155",
        "label": "_balances",
        "offset": 0,
        "slot": "0",
        "type": "t_mapping(t_uint256,t_mapping(t_address,t_uint256))"
      },
      {
        "astId": 198,
        "contract": "contracts/erc1155.sol:NFT1155",
        "label": "_operatorApprovals",
        "offset": 0,
        "slot": "1",
        "type": "t_mapping(t_address,t_mapping(t_address,t_bool))"
      },
      {
        "astId": 200,
        "contract": "contracts/erc1155.sol:NFT1155",
        "label": "_uri",
        "offset": 0,
        "slot": "2",
        "type": "t_string_storage"
      },
      {
        "astId": 7,
        "contract": "contracts/erc1155.sol:NFT1155",
        "label": "_owner",
        "offset": 0,
        "slot": "3",
        "type": "t_address"
      },
      {
        "astId": 5307,
        "contract": "contracts/erc1155.sol:NFT1155",
        "label": "tokenId",
        "offset": 0,
        "slot": "4",
        "type": "t_uint256"
      }
    ],
    "types": {
      "t_address": {
        "encoding": "inplace",
        "label": "address",
        "numberOfBytes": "20"
      },
      "t_bool": {
        "encoding": "inplace",
        "label": "bool",
        "numberOfBytes": "1"
      },
      "t_mapping(t_address,t_bool)": {
        "encoding": "mapping",
        "key": "t_address",
        "label": "mapping(address => bool)",
        "numberOfBytes": "32",
        "value": "t_bool"
      },
      "t_mapping(t_address,t_mapping(t_address,t_bool))": {
        "encoding": "mapping",
        "key": "t_address",
        "label": "mapping(address => mapping(address => bool))",
        "numberOfBytes": "32",
        "value": "t_mapping(t_address,t_bool)"
      },
      "t_mapping(t_address,t_uint256)": {
        "encoding": "mapping",
        "key": "t_address",
        "label": "mapping(address => uint256)",
        "numberOfBytes": "32",
        "value": "t_uint256"
      },
      "t_mapping(t_uint256,t_mapping(t_address,t_uint256))": {
        "encoding": "mapping",
        "key": "t_uint256",
        "label": "mapping(uint256 => mapping(address => uint256))",
        "numberOfBytes": "32",
        "value": "t_mapping(t_address,t_uint256)"
      },
      "t_string_storage": {
        "encoding": "bytes",
        "label": "string",
        "numberOfBytes": "32"
      },
      "t_uint256": {
        "encoding": "inplace",
        "label": "uint256",
        "numberOfBytes": "32"
      }
    }
  }
}